:100000000C9462000C948A000C948A000C948A0070
:100010000C948A000C948A000C948A000C948A0038
:100020000C948A000C948A000C948A000C948A0028
:100030000C948A000C948A000C948A000C948A0018
:100040000C94FC020C948A000C94CA020C94A40236
:100050000C948A000C948A000C948A000C948A00F8
:100060000C948A000C948A000000000024002700F1
:100070002A000000000023002600290000000000E4
:10008000250028002B0004040404040404040202D4
:100090000202020203030303030301020408102007
:1000A0004080010204081020010204081020000012
:1000B0000008000201000003040700000000000027
:1000C0000000460311241FBECFEFD8E0DEBFCDBF36
:1000D00022E0A8E3B1E001C01D92A833B207E1F726
:1000E00011E0A0E0B1E0E4E8FCE002C005900D9270
:1000F000A833B107D9F710E0C2E6D0E004C02197D9
:10010000FE010E943506C136D107C9F70E9485035A
:100110000C9440060C940000CF92DF92EF92FF9275
:100120000F931F93CF93DF936C017A018B01C0E093
:10013000D0E0CE15DF0589F0D8016D918D01D60193
:10014000ED91FC910190F081E02DC6010995892B7C
:1001500011F47E0102C02196ECCFC701DF91CF914F
:100160001F910F91FF90EF90DF90CF900895FC01C9
:10017000918D828D981761F0828DDF01A80FB11DDE
:100180005D968C91928D9F5F9F73928F90E0089502
:100190008FEF9FEF0895FC01918D828D981731F0BC
:1001A000828DE80FF11D858D90E008958FEF9FEF10
:1001B0000895FC01918D228D892F90E0805C9F4FE6
:1001C000821B91098F739927089583E591E00E941E
:1001D000D90021E0892B09F420E0822F0895FC0149
:1001E000848DDF01A80FB11DA35ABF4F2C91848DC0
:1001F00090E001968F739927848FA689B7892C93F5
:10020000A089B1898C9180648C93938D848D98138F
:1002100006C00288F389E02D80818F7D8083089558
:10022000EF92FF920F931F93CF93DF93EC0181E046
:10023000888F9B8D8C8D981305C0E889F989808102
:1002400085FD24C0F62E0B8D10E00F5F1F4F0F733E
:100250001127E02E8C8DE8120CC00FB607FCFACFE8
:10026000E889F989808185FFF5CFCE010E94EF00F2
:10027000F1CF8B8DFE01E80FF11DE35AFF4FF082A5
:100280000B8FEA89FB898081806207C0EE89FF8934
:100290006083E889F98980818064808381E090E0CF
:1002A000DF91CF911F910F91FF90EF900895CF9321
:1002B000DF93EC01888D8823C9F0EA89FB8980816E
:1002C00085FD05C0A889B9898C9186FD0FC00FB640
:1002D00007FCF5CF808185FFF2CFA889B9898C9181
:1002E00085FFEDCFCE010E94EF00E7CFDF91CF91E8
:1002F000089580E090E0892B29F00E94E5008111AB
:100300000C9400000895833081F028F4813099F036
:100310008230A1F008958730A9F08830B9F0843098
:10032000D1F4809180008F7D03C0809180008F7711
:1003300080938000089584B58F7702C084B58F7D47
:1003400084BD08958091B0008F7703C08091B00084
:100350008F7D8093B00008951F93CF93DF93E1EBDF
:10036000F0E09491EDE9F0E0D491E9E8F0E0C49197
:10037000CC23D9F0182F992319F0892F0E948301DB
:10038000EC2FF0E0EE0FFF1FE458FF4FA591B49162
:100390008FB7F894111105C09C91ED2FE095E923DA
:1003A00002C0EC91ED2BEC938FBFDF91CF911F91A9
:1003B00008953FB7F89480913D0190913E01A0913E
:1003C0003F01B091400126B5A89B05C02F3F19F011
:1003D0000196A11DB11D3FBFBA2FA92F982F8827C5
:1003E000820F911DA11DB11DBC01CD0142E0660F20
:1003F000771F881F991F4A95D1F708958F929F9272
:10040000AF92BF92CF92DF92EF92FF926B017C018D
:100410000E94D9014B015C01C114D104E104F10433
:10042000F1F00E94D901DC01CB0188199909AA09D0
:10043000BB09883E9340A105B10570F321E0C21AC3
:10044000D108E108F10888EE880E83E0981EA11C0F
:10045000B11CC114D104E104F10419F7DDCFFF9000
:10046000EF90DF90CF90BF90AF909F908F900895C6
:100470002FB7F8946091390170913A0180913B0156
:1004800090913C012FBF08950E943B0661157105B4
:1004900079F0FB0101900020E9F73197AF01461B8D
:1004A000570BDC01ED91FC910280F381E02D099462
:1004B00080E090E008954F925F926F927F92EF926A
:1004C000FF920F931F93CF93DF93CDB7DEB7A19722
:1004D0000FB6F894DEBF0FBECDBF7C01FA01CB0191
:1004E00019A2223008F42AE08E010F5D1F4F422E20
:1004F000512C612C712CBF01A30192010E941306A3
:10050000F901CA01015011096A3014F4605D01C09B
:10051000695CD8016C93232B242B252B61F7B80140
:10052000C7010E944602A1960FB6F894DEBF0FBE27
:10053000CDBFDF91CF911F910F91FF90EF907F90F2
:100540006F905F904F9008951F920F920FB60F9289
:1005500011242F933F934F935F936F937F938F93C8
:100560009F93AF93BF93EF93FF9383E591E00E9436
:10057000EF00FF91EF91BF91AF919F918F917F918C
:100580006F915F914F913F912F910F900FBE0F9000
:100590001F9018951F920F920FB60F9211242F9350
:1005A0008F939F93EF93FF93E0916301F091640128
:1005B0008081E0916901F0916A0182FD12C0908111
:1005C00080916C018F5F8F7320916D01821751F0C4
:1005D000E0916C01F0E0ED5AFE4F958F80936C0135
:1005E00001C08081FF91EF919F918F912F910F908A
:1005F0000FBE0F901F9018951F920F920FB60F927B
:1006000011242F933F938F939F93AF93BF93809128
:10061000390190913A01A0913B01B0913C01309198
:10062000380123E0230F2D3720F40196A11DB11DC1
:1006300005C026E8230F0296A11DB11D20933801A5
:100640008093390190933A01A0933B01B0933C0110
:1006500080913D0190913E01A0913F01B0914001F8
:100660000196A11DB11D80933D0190933E01A09381
:100670003F01B0934001BF91AF919F918F913F9106
:100680002F910F900FBE0F901F901895E3E5F1E0AA
:100690001382128288EE93E0A0E0B0E08483958319
:1006A000A683B78386E091E09183808385EC90E018
:1006B0009587848784EC90E09787868780EC90E02C
:1006C000918B808B81EC90E0938B828B82EC90E01D
:1006D000958B848B86EC90E0978B868B118E128E97
:1006E000138E148EE0EFF1E01682178210861186C9
:1006F000128613861486158616861786108A118A26
:10070000128A138A148A158A0895789484B58260AF
:1007100084BD84B5816084BD85B5826085BD85B5A5
:10072000816085BD80916E00816080936E00109223
:10073000810080918100826080938100809181009E
:10074000816080938100809180008160809380002F
:100750008091B10084608093B1008091B00081608D
:100760008093B00080917A00846080937A008091B9
:100770007A00826080937A0080917A008160809311
:100780007A0080917A00806880937A001092C1008C
:1007900010923402109235021092360210923702F3
:1007A0001092F2011092F3011092F4011092F501EF
:1007B00068EB7BE080E090E00E94FE0183E591E041
:1007C0009093330280933202E0916301F0916401CF
:1007D00082E08083E0915F01F09160011082E091FE
:1007E0006101F091620180E1808310926B01E091E0
:1007F0006701F091680186E08083E0916501F091E6
:100800006601808180618083E0916501F0916601DD
:10081000808188608083E0916501F091660180812C
:1008200080688083E0916501F091660180818F7D11
:1008300080830E9438026093F2017093F3018093E9
:10084000F4019093F50162E171E0809132029091A0
:1008500033020E9446026AE070E080E090E00E946D
:10086000FE0181E080930602EDE9F0E02491E9E8E1
:10087000F0E08491882399F090E0880F991FFC01A3
:10088000E859FF4FA591B491FC01E458FF4F8591C1
:1008900094918FB7F894EC91E22BEC938FBFC9EA57
:1008A000D0E0FE01249105E910E0F801849188234D
:1008B000C9F090E0880F991FFC01E859FF4FA591FE
:1008C000B49184589F4FFC01459154913FB7F894DF
:1008D0009C91822F809598239C93FA019081892383
:1008E00080833FBF94EF492E55245394612C712C83
:1008F0002DEB822E20E0922EAA24A394B12C0E94EC
:100900003802672B682B692B41F40E943802623051
:1009100071058105910508F40BC10E9438026093AE
:100920004F01709350018093510190935201209197
:100930004B0130914C0140914D0150914E01621795
:1009400073078407950740F460934B0170934C0143
:1009500080934D0190934E01C0904B01D0904C017B
:10096000E0904D01F0904E019B01AC012C193D0926
:100970004E095F0969017A013AEFC316D104E10417
:10098000F10408F4D5C060934B0170934C0180933F
:100990004D0190934E014092FE015092FF016092F2
:1009A0000002709201021092020210920302109251
:1009B0000402109205028091F6019091F701A09136
:1009C000F801B091F9018093FA019093FB01A09393
:1009D000FC01B093FD010E9438026093F601709310
:1009E000F7018093F8019093F9010E943802609317
:1009F000F2017093F3018093F4019093F5010E944A
:100A000038026B017C0164E271E0809132029091C6
:100A100033020E9446022AE041E050E060E070E0CC
:100A200080913202909133020E945B026BE271E08E
:100A300080913202909133020E9446022AE0B7016F
:100A4000A60180913202909133020E945B026DE216
:100A500071E080913202909133020E9446028091AF
:100A6000F6019091F701A091F801B091F901B70159
:100A7000A601481B590B6A0B7B0B2AE080913202BE
:100A8000909133020E945B026DE271E0809132022C
:100A9000909133020E9446024091F6015091F70175
:100AA0006091F8017091F9018091FA019091FB0138
:100AB000A091FC01B091FD01481B590B6A0B7B0B07
:100AC0002AE080913202909133020E945B026FE231
:100AD00071E080913202909133020E9446020E949E
:100AE0003802AB01BC012AE08091320290913302BE
:100AF0000E945B02E0903202F090330261E371E009
:100B0000C7010E94460261E271E0C7010E944602ED
:100B100065E070E080E090E00E94FE010E943802F3
:100B20006093F6017093F7018093F8019093F901B7
:100B3000F4018491FE01E490F801F490FF20A1F00B
:100B400081110E948301EF2DF0E0EE0FFF1FEE58A0
:100B5000FF4FA591B4918C91E82291E080E009F4D7
:100B600090E0E92EF82E02C0E12CF12CF0924A011F
:100B7000E09249018091000190910101E816F90687
:100B800051F00E94380260934501709346018093B2
:100B90004701909348010E9438022091450130910D
:100BA00046014091470150914801DC01CB01821B75
:100BB000930BA40BB50BC397A105B10538F1809138
:100BC000430190914401E816F90601F1F0924401C5
:100BD000E0924301E114F10471F4B0924201A09259
:100BE000410181E00E94AC0164EF71E080E090E09F
:100BF0000E94FE010BC0F1E0EF16F10439F41092EF
:100C000042011092410180E00E94AC01F09201018A
:100C1000E092000164E670E080E090E00E94FE0156
:100C20000E9479016CCEA1E21A2EAA1BBB1BFD010A
:100C30000DC0AA1FBB1FEE1FFF1FA217B307E407BB
:100C4000F50720F0A21BB30BE40BF50B661F771F13
:100C5000881F991F1A9469F76095709580959095F3
:100C60009B01AC01BD01CF010895EE0FFF1F059060
:100C7000F491E02D099481E090E0F8940C94400602
:040C8000F894FFCF16
:100C840001000000000010018C00D900B700CB0067
:100C94005701564D4450565F317C315F564D445098
:100CA400560D0A00564D4450455F003A323A007CD6
:080CB400005F564D445045005D
:00000001FF
