:100000000C9462000C948A000C948A000C948A0070
:100010000C948A000C948A000C948A000C948A0038
:100020000C948A000C948A000C948A000C948A0028
:100030000C948A000C948A000C948A000C948A0018
:100040000C9411030C948A000C94DF020C94B902F6
:100050000C948A000C948A000C948A000C948A00F8
:100060000C948A000C948A000000000024002700F1
:100070002A0000000000250028002B0000000000DE
:1000800023002600290004040404040404040202DA
:100090000202020203030303030301020408102007
:1000A0004080010204081020010204081020000012
:1000B0000008000201000003040700000000000027
:1000C00000004A0511241FBECFEFD8E0DEBFCDBF30
:1000D00011E0A0E0B1E0E8E0FBE002C005900D9285
:1000E000A231B107D9F721E0A2E1B1E001C01D9230
:1000F000A73CB207E1F710E0C2E6D0E004C02197C8
:10010000FE010E947705C136D107C9F70E945B0343
:100110000C9482050C940000CF92DF92EF92FF9234
:100120000F931F93CF93DF936C017A018B01C0E093
:10013000D0E0CE15DF0589F0D8016D918D01D60193
:10014000ED91FC910190F081E02DC6010995892B7C
:1001500011F47E0102C02196ECCFC701DF91CF914F
:100160001F910F91FF90EF90DF90CF900895FC01C9
:10017000918D828D981761F0828DDF01A80FB11DDE
:100180005D968C91928D9F5F9F73928F90E0089502
:100190008FEF9FEF0895FC01918D828D981731F0BC
:1001A000828DE80FF11D858D90E008958FEF9FEF10
:1001B0000895FC01918D228D892F90E0805C9F4FE6
:1001C000821B91098F73992708958AE291E00E941A
:1001D000D90021E0892B09F420E0822F0895FC0149
:1001E000848DDF01A80FB11DA35ABF4F2C91848DC0
:1001F00090E001968F739927848FA689B7892C93F5
:10020000A089B1898C9180648C93938D848D98138F
:1002100006C00288F389E02D80818F7D8083089558
:10022000EF92FF920F931F93CF93DF93EC0181E046
:10023000888F9B8D8C8D981305C0E889F989808102
:1002400085FD24C0F62E0B8D10E00F5F1F4F0F733E
:100250001127E02E8C8DE8120CC00FB607FCFACFE8
:10026000E889F989808185FFF5CFCE010E94EF00F2
:10027000F1CF8B8DFE01E80FF11DE35AFF4FF082A5
:100280000B8FEA89FB898081806207C0EE89FF8934
:100290006083E889F98980818064808381E090E0CF
:1002A000DF91CF911F910F91FF90EF900895CF9321
:1002B000DF93EC01888D8823C9F0EA89FB8980816E
:1002C00085FD05C0A889B9898C9186FD0FC00FB640
:1002D00007FCF5CF808185FFF2CFA889B9898C9181
:1002E00085FFEDCFCE010E94EF00E7CFDF91CF91E8
:1002F000089580E090E0892B29F00E94E5008111AB
:100300000C9400000895833081F028F4813099F036
:100310008230A1F008958730A9F08830B9F0843098
:10032000D1F4809180008F7D03C0809180008F7711
:1003300080938000089584B58F7702C084B58F7D47
:1003400084BD08958091B0008F7703C08091B00084
:100350008F7D8093B0000895CF93DF93282F30E0F6
:10036000F901E255FF4F8491F901E656FF4FD49110
:10037000F901EA57FF4FC491CC2391F081110E94FB
:100380008301EC2FF0E0EE0FFF1FE458FF4FA59123
:10039000B491EC91ED2381E090E021F480E002C083
:1003A00080E090E0DF91CF9108951F93CF93DF938A
:1003B000282F30E0F901E255FF4F8491F901E6560C
:1003C000FF4FD491F901EA57FF4FC491CC23C9F0F4
:1003D000162F81110E948301EC2FF0E0EE0FFF1F1A
:1003E000EE58FF4FA591B4918FB7F894111105C045
:1003F0009C91ED2FE095E92302C0EC91ED2BEC935D
:100400008FBFDF91CF911F910895CF93DF9390E03D
:10041000FC01E656FF4F2491FC01EA57FF4F8491FF
:10042000882361F190E0880F991FFC01E859FF4F84
:10043000C591D491FC01EE58FF4FA591B491611183
:1004400009C09FB7F8948881209582238883EC9116
:100450002E230BC0623061F49FB7F8943881822F4D
:10046000809583238883EC912E2B2C939FBF06C00D
:100470008FB7F894E8812E2B28838FBFDF91CF911F
:1004800008958E3008F08E508770806480937C00D1
:1004900080917A00806480937A0080917A0086FD52
:1004A000FCCF809178002091790090E0922B089504
:1004B0003FB7F8948091130190911401A091150118
:1004C000B091160126B5A89B05C02F3F19F00196E3
:1004D000A11DB11D3FBFBA2FA92F982F8827820FCA
:1004E000911DA11DB11DBC01CD0142E0660F771F1A
:1004F000881F991F4A95D1F708958F929F92AF92C6
:10050000BF92CF92DF92EF92FF926B017C010E942B
:1005100058024B015C01C114D104E104F104F1F073
:100520000E945802DC01CB0188199909AA09BB096C
:10053000883E9340A105B10570F321E0C21AD108AD
:10054000E108F10888EE880E83E0981EA11CB11C1A
:10055000C114D104E104F10419F7DDCFFF90EF904D
:10056000DF90CF90BF90AF909F908F9008950E94A2
:100570007D051F920F920FB60F9211242F933F9378
:100580004F935F936F937F938F939F93AF93BF939B
:10059000EF93FF938AE291E00E94EF00FF91EF91C9
:1005A000BF91AF919F918F917F916F915F914F918B
:1005B0003F912F910F900FBE0F901F9018951F9293
:1005C0000F920FB60F9211242F938F939F93EF9357
:1005D000FF93E0913A01F0913B018081E09140016D
:1005E000F091410182FD12C09081809143018F5FA3
:1005F0008F7320914401821751F0E0914301F0E0A4
:10060000E65DFE4F958F8093430101C08081FF918D
:10061000EF919F918F912F910F900FBE0F901F9090
:1006200018951F920F920FB60F9211242F933F939C
:100630008F939F93AF93BF9380911701909118016F
:10064000A0911901B0911A013091120123E0230FFA
:100650002D3720F40196A11DB11D05C026E8230FFA
:100660000296A11DB11D2093120180931701909352
:100670001801A0931901B0931A0180911301909170
:100680001401A0911501B09116010196A11DB11D93
:100690008093130190931401A0931501B093160158
:1006A000BF91AF919F918F913F912F910F900FBE6E
:1006B0000F901F901895789484B5826084BD84B59E
:1006C000816084BD85B5826085BD85B5816085BD4D
:1006D00080916E00816080936E0010928100809105
:1006E000810082608093810080918100816080938D
:1006F0008100809180008160809380008091B100B2
:1007000084608093B1008091B00081608093B000DC
:1007100080917A00846080937A0080917A00826070
:1007200080937A0080917A00816080937A00809132
:100730007A00806880937A001092C100E0913A01BB
:10074000F0913B0182E08083E0913601F091370126
:100750001082E0913801F09139018FEC8083109282
:100760004201E0913E01F0913F0186E08083E091FB
:100770003C01F0913D01808180618083E0913C01EA
:10078000F0913D01808188608083E0913C01F0918F
:100790003D01808180688083E0913C01F0913D01C2
:1007A00080818F7D808361E085E00E94050261E0A9
:1007B00085E00E94050261E086E00E94050262E099
:1007C00087E00E94050262E088E00E94050262E084
:1007D00089E00E94050262E08AE00E94050261E071
:1007E00083E00E94050260E08FE00E94050201E0C4
:1007F00010E08AE291E00E94D9001816190634F43C
:100800008AE291E00E94B70080932901809129013A
:10081000813659F461E085E00E9405028EE00E9475
:100820004102843D93402CF5B2C0823621F18336DB
:1008300009F496C0843609F0ADC080E10E944102FF
:10084000EC0190931E0180931D0181E10E94410201
:1008500090931C0180931B01C150D240C735D10534
:1008600008F091C09C01255631092B39314008F020
:100870008AC061E08DC08FE00E94AC019093280196
:100880008093270120910001309101018217930785
:1008900099F02FB7F8948091170190911801A091C9
:1008A0001901B0911A012FBF809323019093240165
:1008B000A0932501B09326012FB7F89480911701DA
:1008C00090911801A0911901B0911A012FBF409188
:1008D0002301509124016091250170912601841B10
:1008E000950BA60BB70BC397A105B10550F18091ED
:1008F0002701909128012091210130912201821736
:100900009307F9F09093220180932101009779F4E5
:100910001093200100931F0161E083E00E94D50144
:1009200064EF71E080E090E00E947D020AC00197D0
:1009300041F41092200110921F0160E083E00E94B8
:10094000D501809127019091280190930101809316
:10095000000164E670E080E090E00E947D0290C0BB
:1009600087E00E94AC01892B09F08DC089E00E94CC
:10097000AC01892B09F087C08AE00E94AC01892B69
:1009800009F483C080C061E085E00E94050260E058
:1009900085E07DC0853609F073C0CAE0D0E061E033
:1009A00085E00E94D50160E083E00E94D50160E00F
:1009B00086E00E94D50160E085E00E94D50160EDEF
:1009C00077E080E090E00E947D0260E085E00E9498
:1009D000D50161E083E00E94D50160E086E00E94DD
:1009E000D50160E085E00E94D50160ED77E080E010
:1009F00090E00E947D0260E085E00E94D50160E009
:100A000083E00E94D50161E086E00E94D50160E0AC
:100A100085E00E94D50160ED77E080E090E00E94E3
:100A20007D0261E085E00E94D50160E083E00E94E4
:100A3000D50160E086E00E94D50160E085E00E947B
:100A4000D50160ED77E080E090E00E947D0260E0FB
:100A500085E00E94D50160E083E00E94D50160E05E
:100A600086E00E94D50160E085E00E94D50168E83B
:100A700073E180E090E00E947D02219709F08FCF22
:100A80000E947901B6CE60E001C061E086E00E947C
:100A9000D501F6CFEAE2F1E01382128288EE93E00C
:100AA000A0E0B0E084839583A683B78386E091E0DD
:100AB0009183808385EC90E09587848784EC90E037
:100AC0009787868780EC90E0918B808B81EC90E01B
:100AD000938B828B82EC90E0958B848B86EC90E0FC
:100AE000978B868B118E128E138E148E0895EE0FB7
:100AF000FF1F0590F491E02D099481E090E0F894B7
:080B00000C948205F894FFCF6C
:100B080001000000000010018C00D900B700CB00E4
:020B1800570183
:00000001FF
