:100000000C945D000C9485000C9485000C94850084
:100010000C9485000C9485000C9485000C9485004C
:100020000C9485000C9485000C9485000C9485003C
:100030000C9485000C9485000C9485000C9485002C
:100040000C9430030C9485000C94FE020C94D8029E
:100050000C9485000C9485000C9485000C9485000C
:100060000C9485000C94850000000008000201003B
:100070000003040700000000000000000000000072
:10008000250028002B0000000000240027002A0083
:10009000040404040404040402020202020203032E
:1000A0000303030301020408102040800102040836
:1000B00010200102040810207A0311241FBECFEF84
:1000C000D8E0DEBFCDBF22E0A6E4B1E001C01D92C2
:1000D000A034B207E1F711E0A0E0B1E0EEECFBE004
:1000E00002C005900D92A634B107D9F710E0CDE516
:1000F000D0E004C02197FE010E94DA05CC35D1077B
:10010000C9F70E94B9030C94E5050C940000EAEAD3
:10011000F0E02491E6E9F0E08491882399F090E002
:10012000880F991FFC01EA57FF4FA591B491FC017C
:10013000E458FF4F859194918FB7F894EC91E22B9E
:10014000EC938FBF0895EEE6F0E02491EAEAF0E048
:100150009491E6E9F0E0E491EE2309F43BC0222318
:1001600039F1233091F038F42130A9F0223001F533
:1001700024B52F7D12C0273091F02830A1F0243013
:10018000B9F4209180002F7D03C0209180002F774B
:10019000209380000DC024B52F7724BD09C0209185
:1001A000B0002F7703C02091B0002F7D2093B000C6
:1001B000F0E0EE0FFF1FE458FF4FA591B4912FB769
:1001C000F894EC91811103C090959E2301C09E2B61
:1001D0009C932FBF0895CF92DF92EF92FF920F93DF
:1001E0001F93CF93DF936C017A018B01C0E0D0E0C5
:1001F000CE15DF0589F0D8016D918D01D601ED9105
:10020000FC910190F081E02DC6010995892B11F434
:100210007E0102C02196ECCFC701DF91CF911F91E3
:100220000F91FF90EF90DF90CF900895FC01918D9A
:10023000828D981761F0828DDF01A80FB11D5D9648
:100240008C91928D9F5F9F73928F90E008958FEFB6
:100250009FEF0895FC01918D828D981731F0828D6A
:10026000E80FF11D858D90E008958FEF9FEF0895C1
:10027000FC01918D228D892F90E0805C9F4F821B25
:1002800091098F73992708958BE591E00E943801B9
:1002900021E0892B09F420E0822F0895FC01848D50
:1002A000DF01A80FB11DA35ABF4F2C91848D90E0A0
:1002B00001968F739927848FA689B7892C93A0897B
:1002C000B1898C9180648C93938D848D981306C032
:1002D0000288F389E02D80818F7D80830895EF92DD
:1002E000FF920F931F93CF93DF93EC0181E0888FF0
:1002F0009B8D8C8D981305C0E889F989808185FDD7
:1003000024C0F62E0B8D10E00F5F1F4F0F731127C7
:10031000E02E8C8DE8120CC00FB607FCFACFE889EE
:10032000F989808185FFF5CFCE010E944E01F1CF82
:100330008B8DFE01E80FF11DE35AFF4FF0820B8F0A
:10034000EA89FB898081806207C0EE89FF8960832A
:10035000E889F98980818064808381E090E0DF9181
:10036000CF911F910F91FF90EF900895CF93DF935E
:10037000EC01888D8823C9F0EA89FB89808185FD9D
:1003800005C0A889B9898C9186FD0FC00FB607FCFE
:10039000F5CF808185FFF2CFA889B9898C9185FF3F
:1003A000EDCFCE010E944E01E7CFDF91CF910895AE
:1003B00080E090E0892B29F00E94440181110C9487
:1003C000000008958E3008F08E508770806480930E
:1003D0007C0080917A00806480937A0080917A001A
:1003E00086FDFCCF809178002091790090E0922BDF
:1003F00008953FB7F89480914B0190914C01A091E2
:100400004D01B0914E0126B5A89B05C02F3F19F0B4
:100410000196A11DB11D3FBFBA2FA92F982F882784
:10042000820F911DA11DB11DBC01CD0142E0660FDF
:10043000771F881F991F4A95D1F708958F929F9231
:10044000AF92BF92CF92DF92EF92FF926B017C014D
:100450000E94F9014B015C01C114D104E104F104D3
:10046000F1F00E94F901DC01CB0188199909AA0970
:10047000BB09883E9340A105B10570F321E0C21A83
:10048000D108E108F10888EE880E83E0981EA11CCF
:10049000B11CC114D104E104F10419F7DDCFFF90C0
:1004A000EF90DF90CF90BF90AF909F908F90089586
:1004B0002FB7F894609147017091480180914901EC
:1004C00090914A012FBF08950E94E00561157105C2
:1004D00079F0FB0101900020E9F73197AF01461B4D
:1004E000570BDC01ED91FC910280F381E02D099422
:1004F00080E090E008954F925F926F927F92EF922A
:10050000FF920F931F93CF93DF93CDB7DEB7A197E1
:100510000FB6F894DEBF0FBECDBF7C01FA01CB0150
:1005200019A2223008F42AE08E010F5D1F4F422EDF
:10053000512C612C712CBF01A30192010E94B805BE
:10054000F901CA01015011096A3014F4605D01C05B
:10055000695CD8016C93232B242B252B61F7B80100
:10056000C7010E946602A1960FB6F894DEBF0FBEC7
:10057000CDBFDF91CF911F910F91FF90EF907F90B2
:100580006F905F904F9008950F931F93CF93DF93D9
:10059000EC010E9466028C016FE171E0CE010E94C5
:1005A0006602800F911FDF91CF911F910F910895E7
:1005B0001F920F920FB60F9211242F933F934F93D8
:1005C0005F936F937F938F939F93AF93BF93EF93BB
:1005D000FF938BE591E00E944E01FF91EF91BF9157
:1005E000AF919F918F917F916F915F914F913F91CB
:1005F0002F910F900FBE0F901F9018951F920F9282
:100600000FB60F9211242F938F939F93EF93FF9325
:10061000E0916B01F0916C018081E0917101F091AA
:10062000720182FD12C09081809174018F5F8F737F
:1006300020917501821751F0E0917401F0E0E55AC4
:10064000FE4F958F8093740101C08081FF91EF91DF
:100650009F918F912F910F900FBE0F901F90189523
:100660001F920F920FB60F9211242F933F938F93E7
:100670009F93AF93BF938091470190914801A091C0
:100680004901B0914A013091460123E0230F2D37F3
:1006900020F40196A11DB11D05C026E8230F029686
:1006A000A11DB11D209346018093470190934801FD
:1006B000A0934901B0934A0180914B0190914C0164
:1006C000A0914D01B0914E010196A11DB11D8093E5
:1006D0004B0190934C01A0934D01B0934E01BF91FB
:1006E000AF919F918F913F912F910F900FBE0F90DF
:1006F0001F901895EBE5F1E01382128288EE93E0EB
:10070000A0E0B0E084839583A683B78384E091E082
:100710009183808385EC90E09587848784EC90E0DA
:100720009787868780EC90E0918B808B81EC90E0BE
:10073000938B828B82EC90E0958B848B86EC90E09F
:10074000978B868B118E128E138E148EE8EFF1E04C
:1007500016821782108611861286138614861586D5
:1007600016861786108A118A128A138A148A158AA5
:100770000895789484B5826084BD84B5816084BD19
:1007800085B5826085BD85B5816085BD80916E002F
:10079000816080936E001092810080918100826060
:1007A000809381008091810081608093810080919D
:1007B00080008160809380008091B100846080938C
:1007C000B1008091B00081608093B00080917A0088
:1007D000846080937A0080917A00826080937A00AE
:1007E00080917A00816080937A0080917A0080689D
:1007F00080937A001092C10010923C0210923D0248
:1008000010923E0210923F021092FA011092FB01E8
:100810001092FC011092FD0168EB7BE080E090E01B
:100820000E941E028BE591E090933B0280933A0276
:10083000E0916B01F0916C0182E08083E0916701AF
:10084000F09168011082E0916901F0916A0180E104
:10085000808310927301E0916F01F091700186E046
:100860008083E0916D01F0916E01808180618083D1
:10087000E0916D01F0916E01808188608083E0914C
:100880006D01F0916E01808180688083E0916D013F
:10089000F0916E0180818F7D80830E945802609369
:1008A000FA017093FB018093FC019093FD0160E1DC
:1008B00071E080913A0290913B020E9466026AE0E8
:1008C00070E080E090E00E941E0281E080930E02C2
:1008D0000E94870084EFC82EDD24D394E12CF12CF4
:1008E0000E945802672B682B692B41F40E94580222
:1008F000623071058105910508F405C10E94580216
:1009000060935701709358018093590190935A0155
:100910008090530190905401A0905501B0905601E1
:10092000681579058A059B0540F46093530170931F
:1009300054018093550190935601809053019090FB
:100940005401A0905501B09056019B01AC012819AB
:1009500039094A095B0949015A013AEF83169104A2
:10096000A104B10408F4CFC0609353017093540103
:100970008093550190935601C0920602D0920702CF
:10098000E0920802F092090210920A0210920B0201
:1009900010920C0210920D028091FE019091FF01C5
:1009A000A0910002B0910102809302029093030291
:1009B000A0930402B09305020E9458026093FE01C6
:1009C0007093FF0180930002909301020E945802ED
:1009D0006093FA017093FB018093FC019093FD01F9
:1009E0000E9458024B015C0162E271E080913A0280
:1009F00090913B020E9466022AE041E050E060E0F4
:100A000070E080913A0290913B020E947B0269E281
:100A100071E080913A0290913B020E9466022AE0C6
:100A2000B501A40180913A0290913B020E947B02A1
:100A30006BE271E080913A0290913B020E94660263
:100A40008091FE019091FF01A0910002B0910102FE
:100A5000B501A401481B590B6A0B7B0B2AE080915E
:100A60003A0290913B020E947B026BE271E080911E
:100A70003A0290913B020E9466024091FE01509121
:100A8000FF01609100027091010280910202909139
:100A90000302A0910402B0910502481B590B6A0B96
:100AA0007B0B2AE080913A0290913B020E947B02EC
:100AB0006DE271E080913A0290913B020E946602E1
:100AC0000E945802AB01BC012AE080913A02909149
:100AD0003B020E947B026FE271E080913A029091AA
:100AE0003B020E94C40265E070E080E090E00E945A
:100AF0001E020E9458026093FE017093FF018093D2
:100B000000029093010280E10E94E201EC019093C7
:100B100052018093510181E10E94E20190935001C2
:100B200080934F019E01215032402735310538F422
:100B3000855691098B39914010F481E003C00E94E1
:100B4000870080E00E94A300BE016A5C7E4F8BE5B7
:100B500091E00E94C40260914F0170915001625C6B
:100B60007E4F8BE591E00E94C4020E94D801B8CE6E
:100B7000A1E21A2EAA1BBB1BFD010DC0AA1FBB1FA1
:100B8000EE1FFF1FA217B307E407F50720F0A21B13
:100B9000B30BE40BF50B661F771F881F991F1A9480
:100BA00069F760957095809590959B01AC01BD01AA
:100BB000CF010895EE0FFF1F0590F491E02D0994E9
:0E0BC00081E090E0F8940C94E505F894FFCFE6
:100BCE00000000006F01EB00380116012A01B6018A
:100BDE00564D4450565F317C315F564D4450560D44
:100BEE000A00564D4450455F003A323A007C005F91
:100BFE00564D44504500506F7431203D2000506FCB
:060C0E007432203D2000BD
:107E0000112484B714BE81FFF0D085E080938100F7
:107E100082E08093C00088E18093C10086E0809377
:107E2000C20080E18093C4008EE0C9D0259A86E02C
:107E300020E33CEF91E0309385002093840096BBD3
:107E4000B09BFECF1D9AA8958150A9F7CC24DD24C4
:107E500088248394B5E0AB2EA1E19A2EF3E0BF2EE7
:107E6000A2D0813461F49FD0082FAFD0023811F036
:107E7000013811F484E001C083E08DD089C08234E0
:107E800011F484E103C0853419F485E0A6D080C0E4
:107E9000853579F488D0E82EFF2485D0082F10E0AE
:107EA000102F00270E291F29000F111F8ED06801E7
:107EB0006FC0863521F484E090D080E0DECF843638
:107EC00009F040C070D06FD0082F6DD080E0C81688
:107ED00080E7D80618F4F601B7BEE895C0E0D1E017
:107EE00062D089930C17E1F7F0E0CF16F0E7DF06D8
:107EF00018F0F601B7BEE89568D007B600FCFDCFD4
:107F0000A601A0E0B1E02C9130E011968C91119780
:107F100090E0982F8827822B932B1296FA010C0160
:107F200087BEE89511244E5F5F4FF1E0A038BF0790
:107F300051F7F601A7BEE89507B600FCFDCF97BE46
:107F4000E89526C08437B1F42ED02DD0F82E2BD052
:107F50003CD0F601EF2C8F010F5F1F4F84911BD097
:107F6000EA94F801C1F70894C11CD11CFA94CF0C13
:107F7000D11C0EC0853739F428D08EE10CD085E9AC
:107F80000AD08FE07ACF813511F488E018D01DD067
:107F900080E101D065CF982F8091C00085FFFCCF94
:107FA0009093C60008958091C00087FFFCCF809118
:107FB000C00084FD01C0A8958091C6000895E0E648
:107FC000F0E098E1908380830895EDDF803219F02E
:107FD00088E0F5DFFFCF84E1DECF1F93182FE3DFCA
:107FE0001150E9F7F2DF1F91089580E0E8DFEE27F6
:047FF000FF270994CA
:027FFE00040479
:0400000300007E007B
:00000001FF